{
  "_format": "hh-sol-artifact-1",
  "contractName": "Exchange",
  "sourceName": "contracts/Exchange.sol",
  "abi": [
    {
      "inputs": [
        {
          "internalType": "address",
          "name": "_system",
          "type": "address"
        }
      ],
      "stateMutability": "nonpayable",
      "type": "constructor"
    },
    {
      "anonymous": false,
      "inputs": [
        {
          "indexed": false,
          "internalType": "bytes32",
          "name": "orderId",
          "type": "bytes32"
        }
      ],
      "name": "OrderCancelled",
      "type": "event"
    },
    {
      "anonymous": false,
      "inputs": [
        {
          "indexed": false,
          "internalType": "bytes32",
          "name": "orderId",
          "type": "bytes32"
        },
        {
          "indexed": false,
          "internalType": "address",
          "name": "maker",
          "type": "address"
        },
        {
          "indexed": false,
          "internalType": "address",
          "name": "token0",
          "type": "address"
        },
        {
          "indexed": false,
          "internalType": "address",
          "name": "token1",
          "type": "address"
        },
        {
          "indexed": false,
          "internalType": "uint256",
          "name": "amount",
          "type": "uint256"
        },
        {
          "indexed": false,
          "internalType": "uint216",
          "name": "_exchangeRate",
          "type": "uint216"
        },
        {
          "indexed": false,
          "internalType": "bool",
          "name": "buy",
          "type": "bool"
        },
        {
          "indexed": false,
          "internalType": "uint32",
          "name": "salt",
          "type": "uint32"
        }
      ],
      "name": "OrderCreated",
      "type": "event"
    },
    {
      "anonymous": false,
      "inputs": [
        {
          "indexed": false,
          "internalType": "bytes32",
          "name": "orderId",
          "type": "bytes32"
        },
        {
          "indexed": false,
          "internalType": "address",
          "name": "taker",
          "type": "address"
        },
        {
          "indexed": false,
          "internalType": "uint256",
          "name": "fillAmount",
          "type": "uint256"
        }
      ],
      "name": "OrderExecuted",
      "type": "event"
    },
    {
      "anonymous": false,
      "inputs": [
        {
          "indexed": false,
          "internalType": "bytes32",
          "name": "orderId",
          "type": "bytes32"
        },
        {
          "indexed": false,
          "internalType": "uint256",
          "name": "amount",
          "type": "uint256"
        },
        {
          "indexed": false,
          "internalType": "uint256",
          "name": "_exchangeRate",
          "type": "uint256"
        }
      ],
      "name": "OrderUpdated",
      "type": "event"
    },
    {
      "anonymous": false,
      "inputs": [
        {
          "indexed": false,
          "internalType": "bytes32",
          "name": "pairId",
          "type": "bytes32"
        },
        {
          "indexed": false,
          "internalType": "address",
          "name": "token0",
          "type": "address"
        },
        {
          "indexed": false,
          "internalType": "address",
          "name": "token1",
          "type": "address"
        },
        {
          "indexed": false,
          "internalType": "uint256",
          "name": "exchangeRateDecimals",
          "type": "uint256"
        },
        {
          "indexed": false,
          "internalType": "uint256",
          "name": "minToken0Order",
          "type": "uint256"
        },
        {
          "indexed": false,
          "internalType": "uint256",
          "name": "minToken1Order",
          "type": "uint256"
        }
      ],
      "name": "PairCreated",
      "type": "event"
    },
    {
      "inputs": [
        {
          "internalType": "bytes",
          "name": "signature",
          "type": "bytes"
        },
        {
          "components": [
            {
              "internalType": "address",
              "name": "maker",
              "type": "address"
            },
            {
              "internalType": "address",
              "name": "token0",
              "type": "address"
            },
            {
              "internalType": "address",
              "name": "token1",
              "type": "address"
            },
            {
              "internalType": "uint256",
              "name": "amount",
              "type": "uint256"
            },
            {
              "internalType": "bool",
              "name": "buy",
              "type": "bool"
            },
            {
              "internalType": "uint32",
              "name": "salt",
              "type": "uint32"
            },
            {
              "internalType": "uint216",
              "name": "exchangeRate",
              "type": "uint216"
            }
          ],
          "internalType": "struct IExchange.Order",
          "name": "order",
          "type": "tuple"
        }
      ],
      "name": "cancelOrder",
      "outputs": [],
      "stateMutability": "nonpayable",
      "type": "function"
    },
    {
      "inputs": [
        {
          "internalType": "address",
          "name": "token",
          "type": "address"
        },
        {
          "internalType": "address",
          "name": "cToken",
          "type": "address"
        }
      ],
      "name": "enableMarginTrading",
      "outputs": [],
      "stateMutability": "nonpayable",
      "type": "function"
    },
    {
      "inputs": [
        {
          "internalType": "bytes",
          "name": "signature",
          "type": "bytes"
        },
        {
          "components": [
            {
              "internalType": "address",
              "name": "maker",
              "type": "address"
            },
            {
              "internalType": "address",
              "name": "token0",
              "type": "address"
            },
            {
              "internalType": "address",
              "name": "token1",
              "type": "address"
            },
            {
              "internalType": "uint256",
              "name": "amount",
              "type": "uint256"
            },
            {
              "internalType": "bool",
              "name": "long",
              "type": "bool"
            },
            {
              "internalType": "uint32",
              "name": "salt",
              "type": "uint32"
            },
            {
              "internalType": "uint176",
              "name": "exchangeRate",
              "type": "uint176"
            },
            {
              "internalType": "uint32",
              "name": "borrowLimit",
              "type": "uint32"
            },
            {
              "internalType": "uint8",
              "name": "loops",
              "type": "uint8"
            }
          ],
          "internalType": "struct IExchange.LeverageOrder",
          "name": "order",
          "type": "tuple"
        },
        {
          "internalType": "uint256",
          "name": "amountToFill",
          "type": "uint256"
        }
      ],
      "name": "executeLeverageOrder",
      "outputs": [
        {
          "internalType": "uint256",
          "name": "",
          "type": "uint256"
        }
      ],
      "stateMutability": "nonpayable",
      "type": "function"
    },
    {
      "inputs": [
        {
          "internalType": "bytes",
          "name": "signature",
          "type": "bytes"
        },
        {
          "components": [
            {
              "internalType": "address",
              "name": "maker",
              "type": "address"
            },
            {
              "internalType": "address",
              "name": "token0",
              "type": "address"
            },
            {
              "internalType": "address",
              "name": "token1",
              "type": "address"
            },
            {
              "internalType": "uint256",
              "name": "amount",
              "type": "uint256"
            },
            {
              "internalType": "bool",
              "name": "buy",
              "type": "bool"
            },
            {
              "internalType": "uint32",
              "name": "salt",
              "type": "uint32"
            },
            {
              "internalType": "uint216",
              "name": "exchangeRate",
              "type": "uint216"
            }
          ],
          "internalType": "struct IExchange.Order",
          "name": "order",
          "type": "tuple"
        },
        {
          "internalType": "uint256",
          "name": "amountToFill",
          "type": "uint256"
        }
      ],
      "name": "executeLimitOrder",
      "outputs": [
        {
          "internalType": "uint256",
          "name": "",
          "type": "uint256"
        }
      ],
      "stateMutability": "nonpayable",
      "type": "function"
    },
    {
      "inputs": [
        {
          "internalType": "bytes[]",
          "name": "signatures",
          "type": "bytes[]"
        },
        {
          "components": [
            {
              "internalType": "address",
              "name": "maker",
              "type": "address"
            },
            {
              "internalType": "address",
              "name": "token0",
              "type": "address"
            },
            {
              "internalType": "address",
              "name": "token1",
              "type": "address"
            },
            {
              "internalType": "uint256",
              "name": "amount",
              "type": "uint256"
            },
            {
              "internalType": "bool",
              "name": "buy",
              "type": "bool"
            },
            {
              "internalType": "uint32",
              "name": "salt",
              "type": "uint32"
            },
            {
              "internalType": "uint216",
              "name": "exchangeRate",
              "type": "uint216"
            }
          ],
          "internalType": "struct IExchange.Order[]",
          "name": "orders",
          "type": "tuple[]"
        },
        {
          "internalType": "uint256",
          "name": "amountToFill",
          "type": "uint256"
        }
      ],
      "name": "executeMultipleLimitOrders",
      "outputs": [],
      "stateMutability": "nonpayable",
      "type": "function"
    },
    {
      "inputs": [
        {
          "internalType": "bytes",
          "name": "signature",
          "type": "bytes"
        },
        {
          "components": [
            {
              "internalType": "address",
              "name": "maker",
              "type": "address"
            },
            {
              "internalType": "address",
              "name": "token0",
              "type": "address"
            },
            {
              "internalType": "address",
              "name": "token1",
              "type": "address"
            },
            {
              "internalType": "uint256",
              "name": "amount",
              "type": "uint256"
            },
            {
              "internalType": "bool",
              "name": "long",
              "type": "bool"
            },
            {
              "internalType": "uint32",
              "name": "salt",
              "type": "uint32"
            },
            {
              "internalType": "uint176",
              "name": "exchangeRate",
              "type": "uint176"
            },
            {
              "internalType": "uint32",
              "name": "borrowLimit",
              "type": "uint32"
            },
            {
              "internalType": "uint8",
              "name": "loops",
              "type": "uint8"
            }
          ],
          "internalType": "struct IExchange.LeverageOrder",
          "name": "order",
          "type": "tuple"
        },
        {
          "internalType": "uint256",
          "name": "amountToFill",
          "type": "uint256"
        }
      ],
      "name": "executeReverseLeverageOrder",
      "outputs": [
        {
          "internalType": "uint256",
          "name": "",
          "type": "uint256"
        }
      ],
      "stateMutability": "nonpayable",
      "type": "function"
    },
    {
      "inputs": [
        {
          "internalType": "address",
          "name": "token0",
          "type": "address"
        },
        {
          "internalType": "address",
          "name": "token1",
          "type": "address"
        }
      ],
      "name": "getPairHash",
      "outputs": [
        {
          "internalType": "bytes32",
          "name": "",
          "type": "bytes32"
        }
      ],
      "stateMutability": "pure",
      "type": "function"
    },
    {
      "inputs": [
        {
          "internalType": "bytes32",
          "name": "digest",
          "type": "bytes32"
        }
      ],
      "name": "loopFill",
      "outputs": [
        {
          "internalType": "uint256",
          "name": "",
          "type": "uint256"
        }
      ],
      "stateMutability": "view",
      "type": "function"
    },
    {
      "inputs": [
        {
          "internalType": "bytes32",
          "name": "digest",
          "type": "bytes32"
        }
      ],
      "name": "loops",
      "outputs": [
        {
          "internalType": "uint256",
          "name": "",
          "type": "uint256"
        }
      ],
      "stateMutability": "view",
      "type": "function"
    },
    {
      "inputs": [
        {
          "internalType": "bytes32",
          "name": "pair",
          "type": "bytes32"
        }
      ],
      "name": "minToken0Amount",
      "outputs": [
        {
          "internalType": "uint256",
          "name": "",
          "type": "uint256"
        }
      ],
      "stateMutability": "view",
      "type": "function"
    },
    {
      "inputs": [
        {
          "internalType": "bytes32",
          "name": "digest",
          "type": "bytes32"
        }
      ],
      "name": "orderFills",
      "outputs": [
        {
          "internalType": "uint256",
          "name": "",
          "type": "uint256"
        }
      ],
      "stateMutability": "view",
      "type": "function"
    },
    {
      "inputs": [
        {
          "internalType": "bytes32",
          "name": "orderId",
          "type": "bytes32"
        }
      ],
      "name": "placedOrders",
      "outputs": [
        {
          "components": [
            {
              "internalType": "address",
              "name": "maker",
              "type": "address"
            },
            {
              "internalType": "address",
              "name": "token0",
              "type": "address"
            },
            {
              "internalType": "address",
              "name": "token1",
              "type": "address"
            },
            {
              "internalType": "uint256",
              "name": "amount",
              "type": "uint256"
            },
            {
              "internalType": "bool",
              "name": "buy",
              "type": "bool"
            },
            {
              "internalType": "uint32",
              "name": "salt",
              "type": "uint32"
            },
            {
              "internalType": "uint216",
              "name": "exchangeRate",
              "type": "uint216"
            }
          ],
          "internalType": "struct IExchange.Order",
          "name": "",
          "type": "tuple"
        }
      ],
      "stateMutability": "view",
      "type": "function"
    },
    {
      "inputs": [
        {
          "internalType": "uint256",
          "name": "amount",
          "type": "uint256"
        },
        {
          "internalType": "uint256",
          "name": "borrowLimit",
          "type": "uint256"
        },
        {
          "internalType": "uint256",
          "name": "loop",
          "type": "uint256"
        }
      ],
      "name": "scaledByBorrowLimit",
      "outputs": [
        {
          "internalType": "uint256",
          "name": "",
          "type": "uint256"
        }
      ],
      "stateMutability": "pure",
      "type": "function"
    },
    {
      "inputs": [],
      "name": "system",
      "outputs": [
        {
          "internalType": "contract System",
          "name": "",
          "type": "address"
        }
      ],
      "stateMutability": "view",
      "type": "function"
    },
    {
      "inputs": [
        {
          "internalType": "bytes",
          "name": "signature",
          "type": "bytes"
        },
        {
          "components": [
            {
              "internalType": "address",
              "name": "maker",
              "type": "address"
            },
            {
              "internalType": "address",
              "name": "token0",
              "type": "address"
            },
            {
              "internalType": "address",
              "name": "token1",
              "type": "address"
            },
            {
              "internalType": "uint256",
              "name": "amount",
              "type": "uint256"
            },
            {
              "internalType": "bool",
              "name": "long",
              "type": "bool"
            },
            {
              "internalType": "uint32",
              "name": "salt",
              "type": "uint32"
            },
            {
              "internalType": "uint176",
              "name": "exchangeRate",
              "type": "uint176"
            },
            {
              "internalType": "uint32",
              "name": "borrowLimit",
              "type": "uint32"
            },
            {
              "internalType": "uint8",
              "name": "loops",
              "type": "uint8"
            }
          ],
          "internalType": "struct IExchange.LeverageOrder",
          "name": "order",
          "type": "tuple"
        }
      ],
      "name": "verifyLeverageOrderHash",
      "outputs": [
        {
          "internalType": "bytes32",
          "name": "",
          "type": "bytes32"
        }
      ],
      "stateMutability": "view",
      "type": "function"
    },
    {
      "inputs": [
        {
          "internalType": "bytes",
          "name": "signature",
          "type": "bytes"
        },
        {
          "components": [
            {
              "internalType": "address",
              "name": "maker",
              "type": "address"
            },
            {
              "internalType": "address",
              "name": "token0",
              "type": "address"
            },
            {
              "internalType": "address",
              "name": "token1",
              "type": "address"
            },
            {
              "internalType": "uint256",
              "name": "amount",
              "type": "uint256"
            },
            {
              "internalType": "bool",
              "name": "buy",
              "type": "bool"
            },
            {
              "internalType": "uint32",
              "name": "salt",
              "type": "uint32"
            },
            {
              "internalType": "uint216",
              "name": "exchangeRate",
              "type": "uint216"
            }
          ],
          "internalType": "struct IExchange.Order",
          "name": "order",
          "type": "tuple"
        }
      ],
      "name": "verifyOrderHash",
      "outputs": [
        {
          "internalType": "bytes32",
          "name": "",
          "type": "bytes32"
        }
      ],
      "stateMutability": "view",
      "type": "function"
    }
  ],
  "bytecode": "0x610140346200018157601f620024b838819003918201601f19168301926001600160401b03929091838511838610176200016b5781602092849260409788528339810103126200018157516001600160a01b0381169081900362000181578251906200006b8262000186565b60048252600160208301637a65786560e01b8152602086516200008e8162000186565b8381520193603160f81b855251902092208260e052610100948186524660a05280519060208201927f8b73c3c69bb8fe3d512ecc4cf759cc79239f7b179b0ffacaa9a75d522b39400f958685528284015260608301524660808301523060a083015260a0825260c0820195828710908711176200016b578590525190206080523060c052610120918252600080546001600160a01b0319169190911790556123159283620001a3843960805183611f39015260a05183612004015260c05183611f03015260e05183611f8801525182611fae01525181611f650152f35b634e487b7160e01b600052604160045260246000fd5b600080fd5b604081019081106001600160401b038211176200016b5760405256fe6080604052600436101561001257600080fd5b60003560e01c80630b5d301714610d775780630f20019114610b2d5780631251cd4514610b095780631e41be5a14610a0357806327a74150146109ab5780634b3bb0a2146109925780634d6688e1146105335780635728e161146105075780635d3f535614610388578063611fbb60146102ae57806395bf75fd14610285578063bb30ef1614610259578063bed29b631461022d578063caea68b014610131578063d7b7961c146100fd5763f7213db6146100cc57600080fd5b346100f85760203660031901126100f85760043560005260036020526020604060002054604051908152f35b600080fd5b346100f85760403660031901126100f857602061012961011b61129e565b6101236112b4565b906119b9565b604051908152f35b346100f8576101403660031901126100f8576004356001600160401b0381116100f857610162903690600401611257565b6101203660231901126100f85760405161017b816111ff565b6001600160a01b0360243581811681036100f857825260443581811681036100f857602083015260643590811681036100f8576040820152608435606082015260a43580151581036100f857608082015263ffffffff60c43581811681036100f85760a083015260e4356001600160b01b03811681036100f85760c08301526101043590811681036100f85760e0820152610124359060ff821682036100f8576020926101299261010083015261202a565b346100f85760203660031901126100f85760043560005260046020526020604060002054604051908152f35b346100f85760203660031901126100f85760043560005260026020526020604060002054604051908152f35b346100f85760003660031901126100f8576000546040516001600160a01b039091168152602090f35b346100f8576101203660031901126100f8576004356001600160401b0381116100f8576102df903690600401611257565b60e03660231901126100f857604051906102f8826111ce565b6001600160a01b0360243581811681036100f857835260443581811681036100f857602084015260643590811681036100f8576040830152608435606083015260a43580151581036100f857608083015260c43563ffffffff811681036100f85760a083015260e435906001600160d81b03821682036100f857826101299260c0602095015261010435916114c4565b346100f85760403660031901126100f8576103a161129e565b6103a96112b4565b600054604051638da5cb5b60e01b8152602093926001600160a01b039290919085908290600490829087165afa80156104a95783916000916104ea575b501633036104b5578382806004931694169384600052600682526040600020816bffffffffffffffffffffffff60a01b82541617905560405192838092636f307dc360e01b82525afa9081156104a95760009161047c575b50160361044757005b6064906040519062461bcd60e51b82526004820152600e60248201526d24b73b30b634b21031aa37b5b2b760911b6044820152fd5b61049c9150843d86116104a2575b610494818361121b565b81019061199a565b8461043e565b503d61048a565b6040513d6000823e3d90fd5b60405162461bcd60e51b815260048101859052600d60248201526c139bdd105d5d1a1bdc9a5e9959609a1b6044820152606490fd5b6105019150863d88116104a257610494818361121b565b866103e6565b346100f85760203660031901126100f85760043560005260056020526020604060002054604051908152f35b346100f857610541366112de565b6020808301516001600160a01b03908116600090815260069092526040808320548186015183168452922054939492939181169291169061059990859061058985151561194e565b61059484151561194e565b61202a565b918260005260056020526040600020545b600160ff610100880151160160ff81116108735760ff16811015610985576105e281606088015163ffffffff60e08a015116906122ab565b948460005260046020526105fb604060002054876118f5565b808210156109805750805b875160808901513393916001600160a01b03169015610978575b60208a8101516040516323b872dd60e01b81526001600160a01b0387811660048301528481166024830152604482018790529093929184916064918391600091165af180156104a9576106eb956020938d9261095b575b50604082015160c0909201516001600160a01b0390921691600090670de0b6b3a7640000906106af906001600160b01b031689611902565b6040516323b872dd60e01b81526001600160a01b0396871660048201529390951660248401529093046044820152958692839182906064820190565b03925af19283156104a9576107209361092c575b5086600052600460205260406000206107198382546118e8565b90556118f5565b94846000526004602052604060002054148061091a575b610760575b84156107505761074b90611915565b6105aa565b5050505060209150604051908152f35b620f424061077e60406000205463ffffffff60e08a01511690611902565b0483670de0b6b3a764000061079f60018060b01b0360c08b01511684611902565b0484918360808b01516108df575b5089516040516361d8983f60e01b81526001600160a01b0390911660048201526024810192909252602090829081600081604481015b03926001600160a01b03165af180156104a9576108b4575b508751604051635267b05560e11b81526001600160a01b039182166004820152602481019390935260209183916044918391600091165af180156104a957610889575b50836000526005602052604060002080546001810181116108735760010190558360005260046020526000604081205561073c565b634e487b7160e01b600052601160045260246000fd5b602090813d83116108ad575b61089f818361121b565b810103126100f8578661083e565b503d610895565b602090813d83116108d8575b6108ca818361121b565b810103126100f857886107fb565b503d6108c0565b60c08b01518795508894506107e3935060209250670de0b6b3a764000090610910906001600160b01b031683611902565b04949150916107ad565b5060ff61010087015116811415610737565b61094d9060203d602011610954575b610945818361121b565b8101906114ac565b50896106ff565b503d61093b565b61097190853d871161095457610945818361121b565b508d610677565b925033610620565b610606565b5050505060209150610129565b346100f85760206101296109a5366113e7565b90611b7d565b346100f8577f5152abf959f6564662358c2e52b702259b78bac5ee7842a0f01937e670efcc7d60206109e960606109e1366113e7565b809391611b7d565b9101518160005260038352604060002055604051908152a1005b346100f85760203660031901126100f857600060c0604051610a24816111ce565b8281528260208201528260408201528260608201528260808201528260a08201520152600435600052600160205260e06040600020604051610a65816111ce565b60018060a01b03908183541692838252826001820154169060208301918252836002820154169060408401918252600460038201549160608601928352015494608085019260ff8716151584528160a087019560c063ffffffff98898b60081c168952019860281c8952604051998a5251166020890152511660408701525160608601525115156080850152511660a083015260018060d81b0390511660c0820152f35b346100f85760603660031901126100f85760206101296044356024356004356122ab565b346100f8576060806003193601126100f8576001600160401b03906004358281116100f857366023820112156100f857806004013590610b6c826113d0565b92610b7a604051948561121b565b8284526020918285016024809560051b830101913683116100f857858101915b838310610d51575050505082359485116100f857366023860112156100f857846004013594610bc8866113d0565b95610bd6604051978861121b565b8087528460e08589019202830101913683116100f8578501905b828210610cb05750505050604435918351855103610c595750506000905b8351821015610c575780610c3b610c4192610c298587611924565b51610c348689611924565b51906114c4565b906118f5565b908115610c5757610c5190611915565b90610c0e565b005b90602b6084926040519262461bcd60e51b845260048401528201527f7369676e61747572657320616e64206f7264657273206d75737420686176652060448201526a0e6c2daca40d8cadccee8d60ab1b6064820152fd5b60e0823603126100f85760405190610cc7826111ce565b610cd0836112ca565b8252610cdd8684016112ca565b86830152610ced604084016112ca565b604083015284830135858301526080808401359081151582036100f85783015260a0808401359063ffffffff821682036100f85783015260c083810135929091906001600160d81b03841684036100f85760e0938893820152815201910190610bf0565b82358981116100f8578691610d6c83928a3691870101611257565b815201920191610b9a565b346100f857610d85366112de565b6020828101516001600160a01b0390811660009081526006909252604080832054818601518316845292205481169491169290610dc390829061202a565b908160005260056020526040600020545b60ff610100830151168110156111c057606082015163ffffffff60e0840151169060018301831161087357610e0d9160018401916122ab565b93836000526004602052604060002054948515611037575b610e2f86826118f5565b808310156110315750815b602085015160408601518651608088015160c08901516000946001600160b01b0391909116936001600160a01b039384169390811692339290911690849015611024575b506040516323b872dd60e01b81526001600160a01b03808416600483015285166024820152604481018a9052956020918791829081606481015b03925af19384156104a957670de0b6b3a7640000610ee5600092610f2198602098611007575b508b611902565b6040516323b872dd60e01b81526001600160a01b0396871660048201529390951660248401529093046044820152938492839182906064820190565b03925af180156104a957610f5c92610f54928692610fe8575b5088600052600460205260406000206107198382546118e8565b9283976118e8565b14610fb4575b60208301516040840151610f82916001600160a01b0391821691166119b9565b600052600260205260406000205411610fa357610f9e90611915565b610dd4565b505050905060209150604051908152f35b8360005260056020526040600020805460018101811161087357600101905583600052600460205260006040812055610f62565b6110009060203d60201161095457610945818361121b565b508c610f3a565b61101d90893d8b1161095457610945818361121b565b5038610ede565b3394509150610eb8610e7e565b91610e3a565b60c0840180516001600160b01b03918a9184918b91670de0b6b3a764000090819061106490881686611902565b049560808b01511561119e575b505050620f42409082828102048214831517156108735763ffffffff60e08a0151169081156111885789516040516361d8983f60e01b81526001600160a01b03919091166004820152939092020460248301526020908290816000816044810103926001600160a01b03165af180156104a95761115d575b508551604051635267b05560e11b81526001600160a01b039182166004820152602481019390935260209183916044918391600091165af180156104a957611132575b50610e25565b602090813d8311611156575b611148818361121b565b810103126100f8578861112c565b503d61113e565b602090813d8311611181575b611173818361121b565b810103126100f8578a6110e9565b503d611169565b634e487b7160e01b600052601260045260246000fd5b9250935093506111b391508b93511684611902565b04889083928c8080611071565b505050905060209150610129565b60e081019081106001600160401b038211176111e957604052565b634e487b7160e01b600052604160045260246000fd5b61012081019081106001600160401b038211176111e957604052565b90601f801991011681019081106001600160401b038211176111e957604052565b6001600160401b0381116111e957601f01601f191660200190565b81601f820112156100f85780359061126e8261123c565b9261127c604051948561121b565b828452602083830101116100f857816000926020809301838601378301015290565b600435906001600160a01b03821682036100f857565b602435906001600160a01b03821682036100f857565b35906001600160a01b03821682036100f857565b906101606003198301126100f8576004356001600160401b0381116100f85761130d8361012092600401611257565b9260231901126100f857604051611323816111ff565b6001600160a01b0360243581811681036100f857825260443581811681036100f857602083015260643590811681036100f8576040820152608435606082015260a43580151581036100f857608082015263ffffffff60c43581811681036100f85760a083015260e4356001600160b01b03811681036100f85760c08301526101043590811681036100f85760e08201526101243560ff811681036100f857610100820152906101443590565b6001600160401b0381116111e95760051b60200190565b906101006003198301126100f8576004356001600160401b0381116100f8576114158360e092600401611257565b9260231901126100f85760405161142b816111ce565b6001600160a01b0360243581811681036100f857825260443581811681036100f857602083015260643590811681036100f8576040820152608435606082015260a43580151581036100f857608082015260c43563ffffffff811681036100f85760a082015260e4356001600160d81b03811681036100f85760c082015290565b908160209103126100f8575180151581036100f85790565b919081156118995760608101908151156118485760c08101805190936001600160d81b039390918416156117f757602083810180516001600160a01b039792959291908816156117bd5760409687840199898b51161561178457898351168a8c5116146117345789855116156116fc578461153e91611b7d565b986000968a8852600389526115588a8920548098516118f5565b808210156116f457509a5b8b156116e557908b959493929161157a87896118e8565b8c8a5260038b528b8a20558186511693608033970151156116db575b518b516323b872dd60e01b8082526001600160a01b038981166004840152871660248301526044820199909952908b90829060649082908e9088165af180156116d1578b979695948f9194670de0b6b3a764000094611602948e976116b4575b50511696511690611902565b8b519788526001600160a01b0393841660048901529490921660248701529204604485015283916064918391905af180156116aa57928561167289606098957fe96da7d7f9b1253f3f855c25f35f32d0a83a96c1a75acdecf0f3bc7cc3bb1ccf9a9895829861168d575b506118e8565b9186815260038452205581519384523390840152820152a190565b6116a390873d891161095457610945818361121b565b503861166c565b85513d85823e3d90fd5b6116ca908c8d3d1061095457610945818361121b565b50386115f6565b8c513d8c823e3d90fd5b9395503393611596565b50505050505050935050505090565b90509a611563565b885162461bcd60e51b81526004810189905260116024820152701b585ad95c881b5d5cdd081899481cd95d607a1b6044820152606490fd5b885162461bcd60e51b815260048101899052602360248201527f746f6b656e3020616e6420746f6b656e31206d75737420626520646966666572604482015262195b9d60ea1b6064820152608490fd5b885162461bcd60e51b81526004810189905260126024820152711d1bdad95b8c481b5d5cdd081899481cd95d60721b6044820152606490fd5b60405162461bcd60e51b81526004810187905260126024820152711d1bdad95b8c081b5d5cdd081899481cd95d60721b6044820152606490fd5b60405162461bcd60e51b8152602060048201526024808201527f65786368616e67652072617465206d75737420626520677265617465722074686044820152630616e20360e41b6064820152608490fd5b60405162461bcd60e51b815260206004820152602360248201527f6f7264657220616d6f756e74206d75737420626520677265617465722074686160448201526206e20360ec1b6064820152608490fd5b60405162461bcd60e51b815260206004820152602160248201527f66696c6c416d6f756e74206d7573742062652067726561746572207468616e206044820152600360fc1b6064820152608490fd5b9190820180921161087357565b9190820391821161087357565b8181029291811591840414171561087357565b60001981146108735760010190565b80518210156119385760209160051b010190565b634e487b7160e01b600052603260045260246000fd5b1561195557565b60405162461bcd60e51b815260206004820152601a60248201527f4d617267696e2074726164696e67206e6f7420656e61626c65640000000000006044820152606490fd5b908160209103126100f857516001600160a01b03811681036100f85790565b6040519060208201926bffffffffffffffffffffffff19809260601b16845260601b16603482015260288152606081018181106001600160401b038211176111e95760405251902090565b15611a0b57565b60405162461bcd60e51b815260206004820152602260248201527f6f72646572416d6f756e74206d7573742062652067726561746572207468616e604482015261020360f41b6064820152608490fd5b15611a6257565b60405162461bcd60e51b815260206004820152602360248201527f65786368616e676552617465206d75737420626520677265617465722074686160448201526206e20360ec1b6064820152608490fd5b15611aba57565b60405162461bcd60e51b8152602060048201526016602482015275496e76616c696420746f6b656e30206164647265737360501b6044820152606490fd5b15611aff57565b60405162461bcd60e51b8152602060048201526016602482015275496e76616c696420746f6b656e31206164647265737360501b6044820152606490fd5b15611b4457565b60405162461bcd60e51b8152602060048201526011602482015270696e76616c6964207369676e617475726560781b6044820152606490fd5b906060810190611b8f82511515611a04565b60c081019260018060d81b0391611baa838651161515611a5b565b602081019360018060a01b0395611bc5878751161515611ab3565b6040830194611bd8888751161515611af8565b8780808651169851169651169251608085015115159163ffffffff60a087015116935116936040519760208901997f72947dbb8d2ba67a74e333a748b7a9619ef219198f5cec602fd6d3211397dfbf8b5260408a01526060890152608088015260a087015260c086015260e08501526101009081850152835261012083018381106001600160401b038211176111e957611c8e94611c8994611c7f92604052519020611eb9565b9485915116611c91565b611b3d565b90565b611c9b8383611dcc565b6005811015611db657159081611da0575b50611d98576040519260209384810191630b135d3f60e11b948584526024830152604060448301528051908160648401528660005b838110611d83575050509181611d1760848286600083819a9899829a010152601f8019910116810103606481018452018261121b565b51915afa913d15611d7c573d611d2c8161123c565b90611d3a604051928361121b565b81523d60008383013e5b83611d71575b83611d56575b50505090565b9080929350818051810103126100f857015114388080611d50565b805182149350611d4a565b6060611d44565b81818401015160848287010152018790611ce1565b505050600190565b6001600160a01b03838116911614905038611cac565b634e487b7160e01b600052602160045260246000fd5b906041815114600014611dfa57611df6916020820151906060604084015193015160001a90611e04565b9091565b5050600090600290565b9291907f7fffffffffffffffffffffffffffffff5d576e7357a4501ddfe92f46681b20a08311611ead5760ff16601b81141580611ea2575b611e96579160809493916020936040519384528484015260408301526060820152600093849182805260015afa15611e895781516001600160a01b03811615611e83579190565b50600190565b50604051903d90823e3d90fd5b50505050600090600490565b50601c811415611e3c565b50505050600090600390565b611ec1611f00565b9060405190602082019261190160f01b84526022830152604282015260428152608081018181106001600160401b038211176111e95760405251902090565b307f00000000000000000000000000000000000000000000000000000000000000006001600160a01b03161480612001575b15611f5b577f000000000000000000000000000000000000000000000000000000000000000090565b60405160208101907f000000000000000000000000000000000000000000000000000000000000000082527f000000000000000000000000000000000000000000000000000000000000000060408201527f000000000000000000000000000000000000000000000000000000000000000060608201524660808201523060a082015260a0815260c081018181106001600160401b038211176111e95760405251902090565b507f00000000000000000000000000000000000000000000000000000000000000004614611f32565b606082019161203b83511515611a04565b60c0810180516001600160b01b03906120579082161515611a5b565b60e083019163ffffffff91828451161561225b57620f424083855116101561220c576101009687860160ff815116156121c7576020870180516001600160a01b039a91978b969092916120ad9088161515611ab3565b8960409687820199898b511615156120c490611af8565b898c51169960009a8b526006602052808a8c20541615156120e49061194e565b808c51168b526006602052808a8c20541615156121009061194e565b80808551169d51169b511697519181608085015115159460a0015116945116955116955160ff169688519a60208c019c7f4b5ce9bff05b2eb1b04a66685b9bbe715805ee88470a2d38bc2068b29b9566618e528a8d015260608c015260808b015260a08a015260c089015260e0880152860152610120850152610140908185015283526101608301918383106001600160401b038411176121b3575052519020611c8e92611c89929091611c7f90611eb9565b634e487b7160e01b81526041600452602490fd5b60405162461bcd60e51b815260206004820152601f60248201527f6c65766572616765206d7573742062652067726561746572207468616e2030006044820152606490fd5b60405162461bcd60e51b815260206004820152602160248201527f626f72726f774c696d6974206d757374206265206c657373207468616e2031656044820152601b60f91b6064820152608490fd5b60405162461bcd60e51b815260206004820152602260248201527f626f72726f774c696d6974206d7573742062652067726561746572207468616e604482015261020360f41b6064820152608490fd5b916000915b8183106122bd5750505090565b909192620f42406122d1836122d893611902565b0493611915565b91906122b056fea2646970667358221220109b16b2501f5e20521c2d0cc72dbefab310bdb0d7d5d49ad18da58b4ef4af5c64736f6c63430008110033",
  "linkReferences": {},
  "deployedLinkReferences": {}
}