{
  "contractName": "Exchange",
  "abi": [
    {
      "inputs": [
        {
          "internalType": "address",
          "name": "_system",
          "type": "address"
        }
      ],
      "stateMutability": "nonpayable",
      "type": "constructor"
    },
    {
      "anonymous": false,
      "inputs": [
        {
          "indexed": false,
          "internalType": "bytes32",
          "name": "orderId",
          "type": "bytes32"
        },
        {
          "indexed": false,
          "internalType": "bytes32",
          "name": "pair",
          "type": "bytes32"
        },
        {
          "indexed": false,
          "internalType": "address",
          "name": "maker",
          "type": "address"
        },
        {
          "indexed": false,
          "internalType": "uint256",
          "name": "amount",
          "type": "uint256"
        },
        {
          "indexed": false,
          "internalType": "uint256",
          "name": "exchangeRate",
          "type": "uint256"
        },
        {
          "indexed": false,
          "internalType": "uint256",
          "name": "orderType",
          "type": "uint256"
        }
      ],
      "name": "OrderCreated",
      "type": "event"
    },
    {
      "anonymous": false,
      "inputs": [
        {
          "indexed": false,
          "internalType": "bytes32",
          "name": "orderId",
          "type": "bytes32"
        },
        {
          "indexed": false,
          "internalType": "address",
          "name": "taker",
          "type": "address"
        },
        {
          "indexed": false,
          "internalType": "uint256",
          "name": "fillAmount",
          "type": "uint256"
        }
      ],
      "name": "OrderExecuted",
      "type": "event"
    },
    {
      "anonymous": false,
      "inputs": [
        {
          "indexed": false,
          "internalType": "bytes32",
          "name": "orderId",
          "type": "bytes32"
        },
        {
          "indexed": false,
          "internalType": "uint256",
          "name": "amount",
          "type": "uint256"
        }
      ],
      "name": "OrderUpdated",
      "type": "event"
    },
    {
      "anonymous": false,
      "inputs": [
        {
          "indexed": false,
          "internalType": "bytes32",
          "name": "pairId",
          "type": "bytes32"
        },
        {
          "indexed": false,
          "internalType": "address",
          "name": "token0",
          "type": "address"
        },
        {
          "indexed": false,
          "internalType": "address",
          "name": "token1",
          "type": "address"
        },
        {
          "indexed": false,
          "internalType": "uint256",
          "name": "exchangeRateDecimals",
          "type": "uint256"
        },
        {
          "indexed": false,
          "internalType": "uint256",
          "name": "minToken0Order",
          "type": "uint256"
        }
      ],
      "name": "PairCreated",
      "type": "event"
    },
    {
      "inputs": [
        {
          "internalType": "address",
          "name": "token0",
          "type": "address"
        },
        {
          "internalType": "address",
          "name": "token1",
          "type": "address"
        },
        {
          "internalType": "uint256",
          "name": "amount",
          "type": "uint256"
        },
        {
          "internalType": "uint256",
          "name": "orderType",
          "type": "uint256"
        },
        {
          "internalType": "uint256",
          "name": "exchangeRate",
          "type": "uint256"
        },
        {
          "internalType": "uint256",
          "name": "salt",
          "type": "uint256"
        }
      ],
      "name": "createLimitOrder",
      "outputs": [],
      "stateMutability": "nonpayable",
      "type": "function"
    },
    {
      "inputs": [
        {
          "internalType": "address",
          "name": "token0",
          "type": "address"
        },
        {
          "internalType": "address",
          "name": "token1",
          "type": "address"
        },
        {
          "internalType": "uint256",
          "name": "exchangeRateDecimals",
          "type": "uint256"
        },
        {
          "internalType": "uint256",
          "name": "minToken0Order",
          "type": "uint256"
        }
      ],
      "name": "createPair",
      "outputs": [],
      "stateMutability": "nonpayable",
      "type": "function"
    },
    {
      "inputs": [
        {
          "internalType": "address",
          "name": "token0",
          "type": "address"
        },
        {
          "internalType": "address",
          "name": "token1",
          "type": "address"
        },
        {
          "internalType": "uint256",
          "name": "amount",
          "type": "uint256"
        },
        {
          "internalType": "uint256",
          "name": "exchangeRate",
          "type": "uint256"
        },
        {
          "internalType": "uint256",
          "name": "orderType",
          "type": "uint256"
        },
        {
          "internalType": "bytes32[]",
          "name": "ordersToExecute",
          "type": "bytes32[]"
        }
      ],
      "name": "executeAndPlaceOrder",
      "outputs": [],
      "stateMutability": "nonpayable",
      "type": "function"
    },
    {
      "inputs": [
        {
          "internalType": "bytes32",
          "name": "orderId",
          "type": "bytes32"
        },
        {
          "internalType": "uint256",
          "name": "fillAmount",
          "type": "uint256"
        }
      ],
      "name": "executeLimitOrder",
      "outputs": [
        {
          "internalType": "uint256",
          "name": "",
          "type": "uint256"
        }
      ],
      "stateMutability": "nonpayable",
      "type": "function"
    },
    {
      "inputs": [
        {
          "internalType": "bytes32",
          "name": "",
          "type": "bytes32"
        }
      ],
      "name": "pairs",
      "outputs": [
        {
          "internalType": "address",
          "name": "token0",
          "type": "address"
        },
        {
          "internalType": "address",
          "name": "token1",
          "type": "address"
        },
        {
          "internalType": "uint256",
          "name": "exchangeRateDecimals",
          "type": "uint256"
        },
        {
          "internalType": "uint256",
          "name": "minToken0Order",
          "type": "uint256"
        }
      ],
      "stateMutability": "view",
      "type": "function"
    },
    {
      "inputs": [
        {
          "internalType": "bytes32",
          "name": "",
          "type": "bytes32"
        }
      ],
      "name": "placedOrders",
      "outputs": [
        {
          "internalType": "address",
          "name": "maker",
          "type": "address"
        },
        {
          "internalType": "address",
          "name": "token0",
          "type": "address"
        },
        {
          "internalType": "address",
          "name": "token1",
          "type": "address"
        },
        {
          "internalType": "uint256",
          "name": "orderType",
          "type": "uint256"
        },
        {
          "internalType": "uint256",
          "name": "exchangeRate",
          "type": "uint256"
        },
        {
          "internalType": "uint256",
          "name": "amount",
          "type": "uint256"
        }
      ],
      "stateMutability": "view",
      "type": "function"
    },
    {
      "inputs": [],
      "name": "system",
      "outputs": [
        {
          "internalType": "contract System",
          "name": "",
          "type": "address"
        }
      ],
      "stateMutability": "view",
      "type": "function"
    },
    {
      "inputs": [
        {
          "internalType": "bytes32",
          "name": "orderId",
          "type": "bytes32"
        },
        {
          "internalType": "uint256",
          "name": "amount",
          "type": "uint256"
        }
      ],
      "name": "updateLimitOrder",
      "outputs": [],
      "stateMutability": "nonpayable",
      "type": "function"
    }
  ],
  "bytecode": "0x60806040523480156200001157600080fd5b50d380156200001f57600080fd5b50d280156200002d57600080fd5b506040516200254d3803806200254d833981016040819052620000509162000076565b600280546001600160a01b0319166001600160a01b0392909216919091179055620000b1565b6000602082840312156200008957600080fd5b81516001600160a81b0381168114620000a157600080fd5b6001600160a01b03169392505050565b61248c80620000c16000396000f3fe608060405234801561001057600080fd5b50d3801561001d57600080fd5b50d2801561002a57600080fd5b50600436106100a25760003560e01c80635ed4e30f116100755780635ed4e30f14610176578063673e04811461018957806395bf75fd146101f8578063cd85fc2a1461022357600080fd5b8063035f962d146100a75780631e41be5a146100bc57806321a18818146101505780635d75cb3d14610163575b600080fd5b6100ba6100b5366004612087565b610244565b005b61010d6100ca366004612255565b6000602081905290815260409020805460018201546002830154600384015460048501546005909501546001600160a01b03948516959385169490921692909186565b604080516001600160a01b039788168152958716602087015293909516928401929092526060830152608082015260a081019190915260c0015b60405180910390f35b6100ba61015e36600461226e565b610411565b6100ba6101713660046121ef565b6109df565b6100ba6101843660046120da565b611073565b6101cd610197366004612255565b600160208190526000918252604090912080549181015460028201546003909201546001600160a01b0393841693909116919084565b604080516001600160a01b039586168152949093166020850152918301526060820152608001610147565b60025461020b906001600160a01b031681565b6040516001600160a01b039091168152602001610147565b61023661023136600461226e565b6111eb565b604051908152602001610147565b600260009054906101000a90046001600160a01b03166001600160a01b031663f851a4406040518163ffffffff1660e01b815260040160206040518083038186803b15801561029257600080fd5b505afa1580156102a6573d6000803e3d6000fd5b505050506040513d601f19601f820116820180604052508101906102ca919061205a565b6001600160a01b0316336001600160a01b03161461031f5760405162461bcd60e51b815260206004820152600d60248201526c139bdd105d5d1a1bdc9a5e9959609a1b60448201526064015b60405180910390fd5b6040516bffffffffffffffffffffffff19606086811b8216602084015285901b16603482015260009060480160408051601f198184030181528282528051602091820120600081815260018084529084902080546001600160a01b038c811673ffffffffffffffffffffffffffffffffffffffff19928316811784559383018054918d16919092168117909155600282018a905560038201899055838752938601919091529284019190915260608301869052608083018590529250907f732bafb093086e9f79f6befb608725f1e4ce5f5047c12771a4a79aabd6f10f7a9060a00160405180910390a1505050505050565b600082815260208190526040902080546001600160a01b031633146104685760405162461bcd60e51b815260206004820152600d60248201526c139bdd105d5d1a1bdc9a5e9959609a1b6044820152606401610316565b600181810154600280840154604080516bffffffffffffffffffffffff19606086811b821660208085019190915294901b16603482015281518082036028018152604882018084528151918501919091206000908152938790529282902060c8820190925281546001600160a01b03908116845295820154861660688201529281015460888401526003015460a890920191909152600584015490929091169084111561075e57600061052884600501548661201890919063ffffffff16565b905060018460030154141561057657600284015460408401516001600160a01b0390911692506105739061055d90600a6122f5565b600486015461056d90849061202b565b90612037565b90505b600260009054906101000a90046001600160a01b03166001600160a01b031663fbfa77cf6040518163ffffffff1660e01b815260040160206040518083038186803b1580156105c457600080fd5b505afa1580156105d8573d6000803e3d6000fd5b505050506040513d601f19601f820116820180604052508101906105fc919061205a565b60405163013d64e560e31b81526001600160a01b0384811660048301526024820184905233604483015291909116906309eb272890606401600060405180830381600087803b15801561064e57600080fd5b505af1158015610662573d6000803e3d6000fd5b50505050600260009054906101000a90046001600160a01b03166001600160a01b031663fbfa77cf6040518163ffffffff1660e01b815260040160206040518083038186803b1580156106b457600080fd5b505afa1580156106c8573d6000803e3d6000fd5b505050506040513d601f19601f820116820180604052508101906106ec919061205a565b8454604051632402285360e11b81526001600160a01b03858116600483015260248201859052918216604482015291169063480450a690606401600060405180830381600087803b15801561074057600080fd5b505af1158015610754573d6000803e3d6000fd5b5050505050610998565b838360050154111561099857600583015460009061077c9086612018565b90506001846003015414156107b457600284015460408401516001600160a01b0390911692506107b19061055d90600a6122f5565b90505b600260009054906101000a90046001600160a01b03166001600160a01b031663fbfa77cf6040518163ffffffff1660e01b815260040160206040518083038186803b15801561080257600080fd5b505afa158015610816573d6000803e3d6000fd5b505050506040513d601f19601f8201168201806040525081019061083a919061205a565b604051635a9c78ab60e01b81526001600160a01b038481166004830152602482018490523360448301529190911690635a9c78ab90606401600060405180830381600087803b15801561088c57600080fd5b505af11580156108a0573d6000803e3d6000fd5b50505050600260009054906101000a90046001600160a01b03166001600160a01b031663fbfa77cf6040518163ffffffff1660e01b815260040160206040518083038186803b1580156108f257600080fd5b505afa158015610906573d6000803e3d6000fd5b505050506040513d601f19601f8201168201806040525081019061092a919061205a565b845460405163f4ac627560e01b81526001600160a01b03858116600483015260248201859052918216604482015291169063f4ac627590606401600060405180830381600087803b15801561097e57600080fd5b505af1158015610992573d6000803e3d6000fd5b50505050505b6005830184905560408051868152602081018690527f1bb494197f9246bf49bc5e335e8a79e33601e963e980da969cd930ff418275cf910160405180910390a15050505050565b6040516bffffffffffffffffffffffff19606088811b8216602084015287901b16603482015260009060480160408051601f198184030181528282528051602091820120600081815260018084529084902060808601855280546001600160a01b0390811680885292820154169386019390935260028301549385019390935260039091015460608401529250610ab85760405162461bcd60e51b815260206004820152601060248201527f506169724e6f74537570706f72746564000000000000000000000000000000006044820152606401610316565b83610b055760405162461bcd60e51b815260206004820152601360248201527f496e76616c696445786368616e676552617465000000000000000000000000006044820152606401610316565b8060600151861015610b595760405162461bcd60e51b815260206004820152601260248201527f496e76616c69644f72646572416d6f756e7400000000000000000000000000006044820152606401610316565b604080513360208083018290526001600160a01b038c8116848601819052908c1660608501819052608085018c905260a085018b905260c085018a905260e08086018a905286518087039091018152610100909501865284519483019490942060008181529283905294909120805473ffffffffffffffffffffffffffffffffffffffff19908116909317815560018101805484169092179091556002810180549092169092179055600481018690556005810188905586610e0057600260009054906101000a90046001600160a01b03166001600160a01b031663fbfa77cf6040518163ffffffff1660e01b815260040160206040518083038186803b158015610c6357600080fd5b505afa158015610c77573d6000803e3d6000fd5b505050506040513d601f19601f82011682018060405250810190610c9b919061205a565b600182015460405163013d64e560e31b81526001600160a01b039182166004820152602481018b90523360448201529116906309eb272890606401600060405180830381600087803b158015610cf057600080fd5b505af1158015610d04573d6000803e3d6000fd5b50505050600260009054906101000a90046001600160a01b03166001600160a01b031663fbfa77cf6040518163ffffffff1660e01b815260040160206040518083038186803b158015610d5657600080fd5b505afa158015610d6a573d6000803e3d6000fd5b505050506040513d601f19601f82011682018060405250810190610d8e919061205a565b6001820154604051632402285360e11b81526001600160a01b039182166004820152602481018b905233604482015291169063480450a690606401600060405180830381600087803b158015610de357600080fd5b505af1158015610df7573d6000803e3d6000fd5b50505050611013565b6001871415611013576000610e298460400151600a610e1f91906122f5565b61056d8b8a61202b565b9050600260009054906101000a90046001600160a01b03166001600160a01b031663fbfa77cf6040518163ffffffff1660e01b815260040160206040518083038186803b158015610e7957600080fd5b505afa158015610e8d573d6000803e3d6000fd5b505050506040513d601f19601f82011682018060405250810190610eb1919061205a565b600283015460405163013d64e560e31b81526001600160a01b039182166004820152602481018490523360448201529116906309eb272890606401600060405180830381600087803b158015610f0657600080fd5b505af1158015610f1a573d6000803e3d6000fd5b50505050600260009054906101000a90046001600160a01b03166001600160a01b031663fbfa77cf6040518163ffffffff1660e01b815260040160206040518083038186803b158015610f6c57600080fd5b505afa158015610f80573d6000803e3d6000fd5b505050506040513d601f19601f82011682018060405250810190610fa4919061205a565b6002830154604051632402285360e11b81526001600160a01b0391821660048201526024810184905233604482015291169063480450a690606401600060405180830381600087803b158015610ff957600080fd5b505af115801561100d573d6000803e3d6000fd5b50505050505b60408051838152602081018690523381830152606081018a90526080810188905260a0810189905290517fabccbdb72f604a66dd5a2b37770209badc71059d3f5396047334f7c95971eca99181900360c00190a150505050505050505050565b60005b81518110156111d357866001600160a01b031660008084848151811061109e5761109e612404565b6020908102919091018101518252810191909152604001600020600101546001600160a01b031614156111035760405162461bcd60e51b815260206004820152600d60248201526c24b73b30b634b21027b93232b960991b6044820152606401610316565b856001600160a01b031660008084848151811061112257611122612404565b6020908102919091018101518252810191909152604001600020600201546001600160a01b031614156111875760405162461bcd60e51b815260206004820152600d60248201526c24b73b30b634b21027b93232b960991b6044820152606401610316565b6111b46111ad83838151811061119f5761119f612404565b6020026020010151876111eb565b8690612018565b9450846111c157506111e3565b806111cb816123d3565b915050611076565b506111e3868686858760006109df565b505050505050565b600082815260208190526040812080546001600160a01b03166112505760405162461bcd60e51b815260206004820152600d60248201527f4f726465724e6f74466f756e64000000000000000000000000000000000000006044820152606401610316565b600181810154600280840154604080516bffffffffffffffffffffffff19606095861b81166020808401919091529390951b909416603485015280518085036028018152604885018083528151918401919091206000908152928690529181902060c8850190915280546001600160a01b03908116835294810154909416606884015290830154608883015260039092015460a89091015260058201546112f8908590612043565b93508382600501600082825461130e91906123bc565b9091555050604081015160009061132690600a6122f5565b6004840154611335908761239d565b61133f9190612290565b905060008360030154141561197e57600260009054906101000a90046001600160a01b03166001600160a01b031663fbfa77cf6040518163ffffffff1660e01b815260040160206040518083038186803b15801561139c57600080fd5b505afa1580156113b0573d6000803e3d6000fd5b505050506040513d601f19601f820116820180604052508101906113d4919061205a565b60018401548454604051635a9c78ab60e01b81526001600160a01b039283166004820152602481018990529082166044820152911690635a9c78ab90606401600060405180830381600087803b15801561142d57600080fd5b505af1158015611441573d6000803e3d6000fd5b50505050600260009054906101000a90046001600160a01b03166001600160a01b031663fbfa77cf6040518163ffffffff1660e01b815260040160206040518083038186803b15801561149357600080fd5b505afa1580156114a7573d6000803e3d6000fd5b505050506040513d601f19601f820116820180604052508101906114cb919061205a565b60018401548454604051632402285360e11b81526001600160a01b03928316600482015260248101899052908216604482015291169063480450a690606401600060405180830381600087803b15801561152457600080fd5b505af1158015611538573d6000803e3d6000fd5b50505050600260009054906101000a90046001600160a01b03166001600160a01b031663fbfa77cf6040518163ffffffff1660e01b815260040160206040518083038186803b15801561158a57600080fd5b505afa15801561159e573d6000803e3d6000fd5b505050506040513d601f19601f820116820180604052508101906115c2919061205a565b600184015460405163f4ac627560e01b81526001600160a01b0391821660048201526024810188905233604482015291169063f4ac627590606401600060405180830381600087803b15801561161757600080fd5b505af115801561162b573d6000803e3d6000fd5b50505050600260009054906101000a90046001600160a01b03166001600160a01b031663fbfa77cf6040518163ffffffff1660e01b815260040160206040518083038186803b15801561167d57600080fd5b505afa158015611691573d6000803e3d6000fd5b505050506040513d601f19601f820116820180604052508101906116b5919061205a565b6002840154604051632402285360e11b81526001600160a01b0391821660048201526024810184905233604482015291169063480450a690606401600060405180830381600087803b15801561170a57600080fd5b505af115801561171e573d6000803e3d6000fd5b50505050600260009054906101000a90046001600160a01b03166001600160a01b031663fbfa77cf6040518163ffffffff1660e01b815260040160206040518083038186803b15801561177057600080fd5b505afa158015611784573d6000803e3d6000fd5b505050506040513d601f19601f820116820180604052508101906117a8919061205a565b6002840154845460405163f4ac627560e01b81526001600160a01b03928316600482015260248101859052908216604482015291169063f4ac627590606401600060405180830381600087803b15801561180157600080fd5b505af1158015611815573d6000803e3d6000fd5b5050505081606001518360050154101561197957600260009054906101000a90046001600160a01b03166001600160a01b031663fbfa77cf6040518163ffffffff1660e01b815260040160206040518083038186803b15801561187757600080fd5b505afa15801561188b573d6000803e3d6000fd5b505050506040513d601f19601f820116820180604052508101906118af919061205a565b600184015460058501548554604051635a9c78ab60e01b81526001600160a01b039384166004820152602481019290925282166044820152911690635a9c78ab906064015b600060405180830381600087803b15801561190e57600080fd5b505af1158015611922573d6000803e3d6000fd5b5050506000878152602081905260408120805473ffffffffffffffffffffffffffffffffffffffff199081168255600182018054821690556002820180549091169055600381018290556004810182905560050155505b611fcb565b600183600301541415611f8357600260009054906101000a90046001600160a01b03166001600160a01b031663fbfa77cf6040518163ffffffff1660e01b815260040160206040518083038186803b1580156119d957600080fd5b505afa1580156119ed573d6000803e3d6000fd5b505050506040513d601f19601f82011682018060405250810190611a11919061205a565b6001840154604051632402285360e11b81526001600160a01b0391821660048201526024810188905233604482015291169063480450a690606401600060405180830381600087803b158015611a6657600080fd5b505af1158015611a7a573d6000803e3d6000fd5b50505050600260009054906101000a90046001600160a01b03166001600160a01b031663fbfa77cf6040518163ffffffff1660e01b815260040160206040518083038186803b158015611acc57600080fd5b505afa158015611ae0573d6000803e3d6000fd5b505050506040513d601f19601f82011682018060405250810190611b04919061205a565b6001840154845460405163f4ac627560e01b81526001600160a01b03928316600482015260248101899052908216604482015291169063f4ac627590606401600060405180830381600087803b158015611b5d57600080fd5b505af1158015611b71573d6000803e3d6000fd5b50505050600260009054906101000a90046001600160a01b03166001600160a01b031663fbfa77cf6040518163ffffffff1660e01b815260040160206040518083038186803b158015611bc357600080fd5b505afa158015611bd7573d6000803e3d6000fd5b505050506040513d601f19601f82011682018060405250810190611bfb919061205a565b60028401548454604051635a9c78ab60e01b81526001600160a01b039283166004820152602481018590529082166044820152911690635a9c78ab90606401600060405180830381600087803b158015611c5457600080fd5b505af1158015611c68573d6000803e3d6000fd5b50505050600260009054906101000a90046001600160a01b03166001600160a01b031663fbfa77cf6040518163ffffffff1660e01b815260040160206040518083038186803b158015611cba57600080fd5b505afa158015611cce573d6000803e3d6000fd5b505050506040513d601f19601f82011682018060405250810190611cf2919061205a565b60028401548454604051632402285360e11b81526001600160a01b03928316600482015260248101859052908216604482015291169063480450a690606401600060405180830381600087803b158015611d4b57600080fd5b505af1158015611d5f573d6000803e3d6000fd5b50505050600260009054906101000a90046001600160a01b03166001600160a01b031663fbfa77cf6040518163ffffffff1660e01b815260040160206040518083038186803b158015611db157600080fd5b505afa158015611dc5573d6000803e3d6000fd5b505050506040513d601f19601f82011682018060405250810190611de9919061205a565b600284015460405163f4ac627560e01b81526001600160a01b0391821660048201526024810184905233604482015291169063f4ac627590606401600060405180830381600087803b158015611e3e57600080fd5b505af1158015611e52573d6000803e3d6000fd5b5050505081606001518360050154101561197957600260009054906101000a90046001600160a01b03166001600160a01b031663fbfa77cf6040518163ffffffff1660e01b815260040160206040518083038186803b158015611eb457600080fd5b505afa158015611ec8573d6000803e3d6000fd5b505050506040513d601f19601f82011682018060405250810190611eec919061205a565b600284015460408401516001600160a01b0392831692635a9c78ab921690611f2c90611f1990600a6122f5565b6004880154600589015461056d9161202b565b865460405160e085901b7fffffffff000000000000000000000000000000000000000000000000000000001681526001600160a01b03938416600482015260248101929092529190911660448201526064016118f4565b60405162461bcd60e51b815260206004820152601060248201527f496e76616c69644f7264657254797065000000000000000000000000000000006044820152606401610316565b604080518781523360208201529081018690527fe96da7d7f9b1253f3f855c25f35f32d0a83a96c1a75acdecf0f3bc7cc3bb1ccf9060600160405180910390a18493505050505b92915050565b600061202482846123bc565b9392505050565b6000612024828461239d565b60006120248284612290565b6000818310156120535781612024565b5090919050565b60006020828403121561206c57600080fd5b815161207781612430565b6001600160a01b03169392505050565b6000806000806080858703121561209d57600080fd5b84356120a881612430565b6001600160a01b0390811694506020860135906120c482612430565b9497941695505050506040820135916060013590565b60008060008060008060c087890312156120f357600080fd5b86356120fe81612430565b6001600160a01b0390811696506020908882013561211b81612430565b16955060408801359450606088013593506080880135925060a088013567ffffffffffffffff8082111561214e57600080fd5b818a0191508a601f83011261216257600080fd5b8135818111156121745761217461241a565b8060051b604051601f19603f830116810181811085821117156121995761219961241a565b604052828152858101935084860182860187018f10156121b857600080fd5b600095505b838610156121db5780358552600195909501949386019386016121bd565b508096505050505050509295509295509295565b60008060008060008060c0878903121561220857600080fd5b863561221381612430565b6001600160a01b03908116965060208801359061222f82612430565b9699961697505050506040840135936060810135936080820135935060a0909101359150565b60006020828403121561226757600080fd5b5035919050565b6000806040838503121561228157600080fd5b50508035926020909101359150565b6000826122ad57634e487b7160e01b600052601260045260246000fd5b500490565b600181815b808511156122ed5781600019048211156122d3576122d36123ee565b808516156122e057918102915b93841c93908002906122b7565b509250929050565b6000612024838360008261230b57506001612012565b8161231857506000612012565b816001811461232e576002811461233857612354565b6001915050612012565b60ff841115612349576123496123ee565b50506001821b612012565b5060208310610133831016604e8410600b8410161715612377575081810a612012565b61238183836122b2565b8060001904821115612395576123956123ee565b029392505050565b60008160001904831182151516156123b7576123b76123ee565b500290565b6000828210156123ce576123ce6123ee565b500390565b60006000198214156123e7576123e76123ee565b5060010190565b634e487b7160e01b600052601160045260246000fd5b634e487b7160e01b600052603260045260246000fd5b634e487b7160e01b600052604160045260246000fd5b74ffffffffffffffffffffffffffffffffffffffffff8116811461245357600080fd5b5056fea26474726f6e58221220457b579bd1e5b2aaa9502fb49c95f7ee8dd6eb546b5b100a00863df9f108cd8364736f6c63430008060033",
  "source": "// SPDX-License-Identifier: MIT\npragma solidity ^0.8.6;\n\nimport \"@openzeppelin/contracts/token/ERC20/utils/SafeERC20.sol\";\nimport \"@openzeppelin/contracts/token/ERC20/IERC20.sol\";\n// import { Errors } from \"./libraries/Errors.sol\";\nimport \"./Vault.sol\";\nimport \"./System.sol\";\nimport \"@openzeppelin/contracts/utils/math/SafeMath.sol\";\nimport \"@openzeppelin/contracts/utils/math/Math.sol\";\n\ncontract Exchange {\n    using SafeERC20 for IERC20;\n    using Math for uint256;\n    using SafeMath for uint256;\n    event OrderCreated(\n        bytes32 orderId,\n        bytes32 pair,\n        address maker,\n        uint256 amount,\n        uint256 exchangeRate,\n        uint256 orderType\n    );\n\n    event OrderUpdated(\n        bytes32 orderId,\n        uint256 amount\n    );\n\n    event OrderExecuted(bytes32 orderId, address taker, uint fillAmount);\n\n    event PairCreated(\n        bytes32 pairId,\n        address token0,\n        address token1,\n        uint256 exchangeRateDecimals,\n        uint256 minToken0Order\n    );\n\n    enum OrderType {\n        LIMITSELL,\n        LIMITBUY\n    }\n\n    struct Order {\n        address maker;\n        address token0;\n        address token1;\n        uint256 orderType;\n        uint256 exchangeRate;\n        uint256 amount; // amount of token0\n    }\n\n    struct Pair {\n        address token0;\n        address token1;\n        uint256 exchangeRateDecimals;\n        uint256 minToken0Order;\n    }\n\n    mapping(bytes32 => Order) public placedOrders;\n    mapping(bytes32 => Pair) public pairs;\n    System public system;\n\n    constructor(address _system) {\n        system = System(_system);\n    }\n\n    function createPair(\n        address token0,\n        address token1,\n        uint256 exchangeRateDecimals,\n        uint256 minToken0Order\n    ) external {\n        if(msg.sender != system.admin()) revert('NotAuthorized'); //Errors.NotAuthorized();\n\n        bytes32 pairHash = keccak256(abi.encodePacked(token0, token1));\n        Pair storage pair = pairs[pairHash];\n        pair.token0 = token0;\n        pair.token1 = token1;\n        pair.exchangeRateDecimals = exchangeRateDecimals;\n        pair.minToken0Order = minToken0Order;\n\n        emit PairCreated(\n            pairHash,\n            token0,\n            token1,\n            exchangeRateDecimals,\n            minToken0Order\n        );\n    }\n\n    function createLimitOrder(\n        address token0,\n        address token1,\n        uint256 amount, // amount of token0 to buy/sell\n        uint256 orderType,\n        uint256 exchangeRate,\n        uint256 salt\n    ) public {\n        bytes32 pairHash = keccak256(abi.encodePacked(token0, token1));\n        Pair memory pair = pairs[pairHash];\n        if(pair.token0 == address(0)) revert('PairNotSupported'); // Errors.PairNotSupported();\n\n        /* -------------------------------------------------------------------------- */\n        /*                                 Validation                                 */\n        /* -------------------------------------------------------------------------- */\n\n        // exchange rate validation\n        if(exchangeRate == 0) revert('InvalidExchangeRate'); // Errors.InvalidExchangeRate(exchangeRate);\n\n        // check for minimum order size        \n        if (amount < pair.minToken0Order) revert('InvalidOrderAmount'); // Errors.InvalidOrderAmount(amount);\n        \n        bytes32 orderHash = keccak256(abi.encode(\n            msg.sender,         // maker\n            token0,             // token0\n            token1,             // token1\n            amount,             // amount\n            orderType,          // orderType\n            exchangeRate,       // exchangeRate\n            salt                // salt\n        ));\n        \n        Order storage order = placedOrders[orderHash];\n        order.maker = msg.sender;\n        // order.srcAmount = token0Amt;\n        order.token0 = token0;\n        order.token1 = token1;\n        order.exchangeRate = exchangeRate;\n        order.amount = amount;\n\n        // lock token0 or token1\n        if (orderType == uint256(OrderType.LIMITSELL)) {\n            system.vault().lockToken(order.token0, amount, msg.sender);\n            system.vault().decreaseBalance(order.token0, amount, msg.sender);\n        } else if (orderType == uint256(OrderType.LIMITBUY)) {\n            uint token1Amount = amount.mul(exchangeRate).div(10**pair.exchangeRateDecimals);\n            system.vault().lockToken(order.token1, token1Amount, msg.sender);\n            system.vault().decreaseBalance(order.token1, token1Amount, msg.sender);\n        }\n\n        emit OrderCreated(\n            orderHash,\n            pairHash,\n            msg.sender,\n            amount,\n            exchangeRate,\n            orderType\n        );\n    }\n\n    function updateLimitOrder(bytes32 orderId, uint256 amount) external {\n        Order storage order = placedOrders[orderId];\n        if(msg.sender != order.maker) revert('NotAuthorized'); // Errors.NotAuthorized();\n\n        Pair memory pair = pairs[keccak256(abi.encodePacked(order.token0, order.token1))];\n\n        address token = order.token0;\n        if (order.amount < amount) {\n            uint extraAmount = amount.sub(order.amount);\n            if(order.orderType == uint256(OrderType.LIMITBUY)){\n                token = order.token1;\n                extraAmount = extraAmount.mul(order.exchangeRate).div(10**pair.exchangeRateDecimals);\n            }\n            system.vault().lockToken(token, extraAmount, msg.sender);\n            system.vault().decreaseBalance(token, extraAmount, order.maker);\n        } else if (order.amount > amount) {\n            uint lessAmount = order.amount.sub(amount);\n            if(order.orderType == uint256(OrderType.LIMITBUY)){\n                token = order.token1;\n                lessAmount = lessAmount.mul(order.exchangeRate).div(10**pair.exchangeRateDecimals);\n            }\n            system.vault().unlockToken(token, lessAmount, msg.sender);\n            system.vault().increaseBalance(token, lessAmount, order.maker);\n        }\n        // update order amount\n        order.amount = amount;\n\n        emit OrderUpdated(orderId, amount);\n    }\n\n    function executeLimitOrder(bytes32 orderId, uint256 fillAmount) public returns(uint) {\n        // Order\n        Order storage order = placedOrders[orderId];\n        /* -------------------------------------------------------------------------- */\n        /*                                 Validation                                 */\n        /* -------------------------------------------------------------------------- */\n        if(order.maker == address(0)) revert('OrderNotFound'); // Errors.OrderNotFound(orderId);\n\n        // Pair\n        Pair memory pair = pairs[keccak256(abi.encodePacked(order.token0, order.token1))];\n\n\n        // minus fill amount from order\n        fillAmount = fillAmount.max(order.amount);\n        order.amount -= fillAmount;\n\n        uint256 token1FillAmount = fillAmount * order.exchangeRate / 10**pair.exchangeRateDecimals;\n        if (order.orderType == uint256(OrderType.LIMITSELL)) {\n            // unlock and decrement maker's token0 balance\n            // increment msg.sender's token0 balance\n            system.vault().unlockToken(order.token0, fillAmount, order.maker);\n            system.vault().decreaseBalance(order.token0, fillAmount, order.maker);\n            system.vault().increaseBalance(order.token0, fillAmount, msg.sender);\n            // decrement msg.sender's token1 balance\n            // increment maker's token1 balance\n            system.vault().decreaseBalance(order.token1, token1FillAmount, msg.sender);\n            system.vault().increaseBalance(order.token1, token1FillAmount, order.maker);\n\n            // delete order if remaining order amount is less than minOrderAmount\n            if (order.amount < pair.minToken0Order){\n                system.vault().unlockToken(order.token0, order.amount, order.maker);\n                delete placedOrders[orderId];\n            }\n        } else if (order.orderType == uint256(OrderType.LIMITBUY)) {\n            // decrement msg.sender's token0 balance\n            // increment maker's token0 balance\n            system.vault().decreaseBalance(order.token0, fillAmount, msg.sender);\n            system.vault().increaseBalance(order.token0, fillAmount, order.maker);\n            // unlock and decrement maker's token1 balance\n            // increment msg.sender's token1 balance\n            system.vault().unlockToken(order.token1, token1FillAmount, order.maker);\n            system.vault().decreaseBalance(order.token1, token1FillAmount, order.maker);\n            system.vault().increaseBalance(order.token1, token1FillAmount, msg.sender);\n\n            // delete order if remaining order amount is less than minOrderAmount\n            if (order.amount < pair.minToken0Order){\n                system.vault().unlockToken(order.token1, order.amount.mul(order.exchangeRate).div(10**pair.exchangeRateDecimals), order.maker);\n                delete placedOrders[orderId];\n            }\n        }\n        else {\n            revert('InvalidOrderType'); // Errors.InvalidOrderType(order.orderType);\n        }\n\n        emit OrderExecuted(orderId, msg.sender, fillAmount);\n        return fillAmount;\n    }\n\n    function executeAndPlaceOrder(address token0, address token1, uint amount, uint exchangeRate, uint orderType, bytes32[] memory ordersToExecute) external {\n        // execute orders\n        for (uint i = 0; i < ordersToExecute.length; i++) {\n            require(placedOrders[ordersToExecute[i]].token0 != token0, 'Invalid Order');\n            require(placedOrders[ordersToExecute[i]].token1 != token1, 'Invalid Order'); \n            amount = amount.sub(executeLimitOrder(ordersToExecute[i], amount));\n            if(amount == 0) return;\n        }\n\n        // place order\n        createLimitOrder(token0, token1, amount, orderType, exchangeRate, 0);\n    }\n}\n",
  "sourcePath": "/Users/prasad/projects/synthex/zexe/contracts/Exchange.sol",
  "compiler": {
    "name": "solc",
    "version": "0.8.6+commit.0e36fba0.mod.Emscripten.clang"
  },
  "schemaVersion": "2.0.1",
  "updatedAt": "2022-11-02T11:46:33.255Z"
}